:1000000027C10000C2C6000095C6000068C60000F7
:100010003BC600000EC60000E1C50000B4C50000EC
:1000200087C5000046C1000044C1000042C1000075
:1000300040C100003EC100003CC100003AC10000C8
:1000400038C10000F3C7000034C1000032C1000015
:1000500030C100002EC100002CC100001FC50000EF
:1000600028C1000025C30000FAC2000022C1000020
:1000700020C100001EC100001CC100001AC1000008
:10008000A8C7000016C1000014C1000012C1000082
:1000900010C100000EC100000CC100000AC1000028
:1000A00008C1000006C1000067C7000002C10000CF
:1000B00000C10000FEC00000FCC0000030C700000E
:1000C000F8C00000F6C00000F4C00000F2C000005C
:1000D000F0C00000EEC00000ECC00000EAC000006C
:1000E000E8C00000030C090C0F0C1B0C270CB60C0D
:1000F000330C3C0C450C510C5D0C690C7A0C860CD5
:10010000B60C920C9E0CAA0C6C026F025E0262028C
:100110006802A602730277027D02810285028B02C9
:100120008F029302A60299029D02A10200000A0B0F
:1001300002090C0D0E080703040100000000000076
:1001400000000000000000000000000000000000AF
:10015000000000000000000012111000000000006C
:10016000000000000000000000000000000000008F
:10017000000000002100240027002A002D0030008C
:10018000330001010000040107010A010000220000
:10019000250028002B002E00310034000201000051
:1001A000050108010B0100002000230026002900A2
:1001B0002C002F003200000100000301060109019C
:1001C00005050505070508080808020202020A0AD3
:1001D00008080404040401010101010101010303F1
:1001E000030303030303040707070C0C0C0C0C0C9C
:1001F0000C0C0202020206060606060606060B0B99
:100200000B0B0B0B0B0B01021020200808102040D9
:1002100010204080020102010804020101020408CA
:100220001020408080402010080402018004020158
:1002300080402010080402010804020101020408A1
:10024000102040800102040810204080D10EC50E0D
:1002500011241FBECFEFD1E2DEBFCDBF00E00CBF47
:1002600012E0A0E0B2E0ECE1F4E200E00BBF02C07B
:1002700007900D92AC38B107D9F724E0ACE8B2E0B2
:1002800001C01D92AD34B207E1F711E0C7E2D1E041
:1002900000E006C021970109802FFE010E94380F5F
:1002A000C632D10780E00807A9F70E94A80A0C947B
:1002B000FD11A6CEFC01918D828D981761F0828D83
:1002C000DF01A80FB11D5D968C91928D9F5F9F738A
:1002D000928F90E008958FEF9FEF0895FC01918D2C
:1002E000828D981731F0828DE80FF11D858D90E099
:1002F00008958FEF9FEF0895FC01918D228D892F36
:1003000090E0805C9F4F821B91098F73992708951D
:1003100083E493E0F1DF21E0892B09F420E0822FD0
:100320000895FC01848DDF01A80FB11DA35ABF4FB2
:100330002C91848D90E001968F739927848FA689E4
:10034000B7892C93A089B1898C9180648C93938D0B
:10035000848D981306C00288F389E02D80818F7DFB
:1003600080830895EF92FF920F931F93CF93DF93B3
:10037000EC0181E0888F9B8D8C8D981305C0E889F6
:10038000F989808185FD23C0F62E0B8D10E00F5F6B
:100390001F4F0F731127E02E8C8DE8120BC00FB684
:1003A00007FCFACFE889F989808185FFF5CFCE0176
:1003B000B8DFF2CF8B8DFE01E80FF11DE35AFF4F3E
:1003C000F0820B8FEA89FB898081806207C0EE8909
:1003D000FF896083E889F98980818064808381E076
:1003E00090E0DF91CF911F910F91FF90EF900895D2
:1003F000CF93DF93EC01888D8823C1F0EA89FB89D4
:10040000808185FD05C0A889B9898C9186FD0EC0C3
:100410000FB607FCF5CF808185FFF2CFA889B98997
:100420008C9185FFEDCFCE017CDFE8CFDF91CF91BE
:10043000089580E090E0892B19F06ADF811125C0D2
:1004400080E090E0892B41F080E090E0892B21F062
:100450000E94000081111CC080E090E0892B41F0D7
:1004600080E090E0892B21F00E940000811113C0F0
:1004700080E090E0892BA1F080E090E0892B81F072
:100480000E94000081110AC008950E940000D8CF88
:100490000E940000E1CF0E940000EACF0C9400000F
:1004A000089590E0FC013197E231F10508F04EC06B
:1004B0008827EC57FF4F8F4F0C94380F80918000A6
:1004C0008F7703C0809180008F7D80938000089596
:1004D00080918000877FF9CF84B58F7702C084B583
:1004E0008F7D84BD08958091B0008F7703C0809187
:1004F000B0008F7D8093B0000895809190008F7739
:1005000007C0809190008F7D03C080919000877F0D
:100510008093900008958091A0008F7707C080910C
:10052000A0008F7D03C08091A000877F8093A000F2
:100530000895809120018F7707C0809120018F7DE1
:1005400003C080912001877F809320010895CF937D
:10055000DF93282F30E0F901E45DFE4F8491F9012B
:10056000EA5FFD4FD491F901E054FE4FC491CC23D2
:1005700089F0811196DFEC2FF0E0EE0FFF1FEA55B6
:10058000FE4FA591B491EC91ED2381E090E021F430
:1005900080E002C080E090E0DF91CF9108953FB706
:1005A000F8948091AF029091B002A091B102B09105
:1005B000B20226B5A89B05C02F3F19F00196A11DD8
:1005C000B11D3FBFBA2FA92F982F8827820F911DE9
:1005D000A11DB11DBC01CD0142E0660F771F881F30
:1005E000991F4A95D1F70895089583E0B0DF0197E8
:1005F00029F482E0ACDF019759F404C082E0A7DF60
:10060000892B31F48091A3029091A402019705C037
:100610008091A3029091A40201969093A4028093EA
:10062000A302089582E093DF019729F483E08FDF2E
:10063000892B59F404C083E08ADF019731F480915B
:10064000A3029091A402019705C08091A30290910A
:10065000A40201969093A4028093A30208951F928E
:100660000F920FB60F9211240BB60F922F933F9358
:100670004F935F936F937F938F939F93AF93BF93AA
:10068000EF93FF9383E493E04CDEFF91EF91BF91F2
:10069000AF919F918F917F916F915F914F913F911A
:1006A0002F910F900BBE0F900FBE0F901F901895BB
:1006B0001F920F920FB60F9211240BB60F922F9329
:1006C0008F939F93EF93FF93E0915303F091540323
:1006D0008081E0915903F0915A0382FD12C090810C
:1006E00080915C038F5F8F7320915D03821751F0BF
:1006F000E0915C03F0E0ED5BFC4F958F80935C0331
:1007000001C08081FF91EF919F918F912F910F9068
:100710000BBE0F900FBE0F901F9018951F93CF9395
:10072000DF93282F30E0F901E45DFE4F8491F90159
:10073000EA5FFD4FD491F901E054FE4FC491CC2300
:10074000C1F0162F8111ADDEEC2FF0E0EE0FFF1F90
:10075000E457FE4FA591B4918FB7F894111105C0DD
:100760009C91ED2FE095E92302C0EC91ED2BEC93E9
:100770008FBFDF91CF911F910895CF92DF92EF92BB
:10078000FF920F931F93CF93DF936C018B017A013C
:10079000EC01CB55DD4F888187FF04C0FB0111823E
:1007A000108224C08CE08C9D90018D9D300D112411
:1007B0008881A901480F511D87FD5A958091A90292
:1007C00090E04817590794F48881A901480F511DFA
:1007D00087FD5A95CA01FA01EE0FFF1F8E0F9F1F6A
:1007E000FC01ED54FD4F808186FD19C088818F5F2B
:1007F00088838CE08C9D90018D9D300D1124888123
:10080000A901480F511D87FD5A958091A90290E0DA
:1008100048175907B4F488818C303CF112C08881A4
:10082000280F311D87FD3A95F901EE0FFF1F2E0F9E
:100830003F1FF901ED54FD4F808160E08F736EDF43
:10084000D5CFF80180819181049680349C4918F4B9
:1008500080E49CE904C0F801808191810496F7014D
:10086000918380838FEF888344C0F8014081518158
:100870008881B901680F711D87FD7A95CB01FB0155
:10088000EE0FFF1F8E0F9F1FFC01ED54FD4F818166
:100890009281840F951FF701918380838881A9013C
:1008A000480F511D87FD5A95CA01FA01EE0FFF1F2F
:1008B0008E0F9F1FFC01ED54FD4F808186FF19C0F4
:1008C0008881280F311D87FD3A95F901EE0FFF1F32
:1008D0002E0F3F1FF901ED54FD4F808161E08F73B2
:1008E000DF91CF911F910F91FF90EF90DF90CF900C
:1008F00015CFDF91CF911F910F91FF90EF90DF9077
:10090000CF900895CF93DF9390E0FC01EA5FFD4F15
:100910002491FC01E054FE4F8491882361F190E022
:10092000880F991FFC01EE58FE4FC591D491FC0130
:10093000E457FE4FA591B491611109C09FB7F89497
:100940008881209582238883EC912E230BC062300E
:1009500061F49FB7F8943881822F80958323888330
:10096000EC912E2B2C939FBF06C08FB7F894E88193
:100970002E2B28838FBFDF91CF910895CF92DF92E6
:10098000EF92FF926DE772E083E493E0E0D5C090D0
:10099000A302D090A4020D2C000CEE08FF08F7FE75
:1009A00014C0E0914303F09144030190F081E02DE5
:1009B0006DE283E493E0199544275527BA014C1959
:1009C0005D096E097F092AE003C02AE0B701A6018C
:1009D00083E493E075D56CE372E083E493E05BD548
:1009E00061E088E09BDE61E089E098DE61E08AE01A
:1009F00089DF61E08AE092DE86EF9FEF9093A402A8
:100A00008093A30281E080938C02FF90EF90DF90AF
:100A1000CF9008958F929F92AF92BF92CF92DF9224
:100A2000EF92FF926B017C01BADD4B015C01C114B6
:100A3000D104E104F104E9F0B2DDDC01CB01881955
:100A40009909AA09BB09883E9340A105B10578F32D
:100A500021E0C21AD108E108F10888EE880E83E08F
:100A6000981EA11CB11CC114D104E104F10421F7AA
:100A7000DECFFF90EF90DF90CF90BF90AF909F9030
:100A80008F9008952FB7F8946091AB027091AC02EB
:100A90008091AD029091AE022FBF08951F920F92E8
:100AA0000FB60F9211242F933F938F939F93AF9381
:100AB000BF938091AB029091AC02A091AD02B09136
:100AC000AE023091AA0223E0230F2D3720F40196C5
:100AD000A11DB11D05C026E8230F0296A11DB11D61
:100AE0002093AA028093AB029093AC02A093AD0234
:100AF000B093AE028091AF029091B002A091B1028A
:100B0000B091B2020196A11DB11D8093AF029093E6
:100B1000B002A093B102B093B202BF91AF919F9186
:100B20008F913F912F910F900FBE0F901F901895AE
:100B30001F920F920FB60F9211240BB60F922F93A4
:100B40003F934F935F936F937F938F939F93AF9355
:100B5000BF93EF93FF93E0910E02F0910F0219956E
:100B6000FF91EF91BF91AF919F918F917F916F9185
:100B70005F914F913F912F910F900BBE0F900FBE41
:100B80000F901F9018951F920F920FB60F9211247D
:100B90000BB60F922F933F934F935F936F937F9377
:100BA0008F939F93AF93BF93EF93FF93E0910C02CA
:100BB000F0910D021995FF91EF91BF91AF919F9127
:100BC0008F917F916F915F914F913F912F910F90F6
:100BD0000BBE0F900FBE0F901F9018951F920F9293
:100BE0000FB60F9211240BB60F922F933F934F9392
:100BF0005F936F937F938F939F93AF93BF93EF9385
:100C0000FF93E0910202F09103021995FF91EF9199
:100C1000BF91AF919F918F917F916F915F914F9114
:100C20003F912F910F900BBE0F900FBE0F901F9012
:100C300018951F920F920FB60F9211240BB60F92B8
:100C40002F933F934F935F936F937F938F939F93D4
:100C5000AF93BF93EF93FF93E0910002F0910102F5
:100C60001995FF91EF91BF91AF919F918F917F91D6
:100C70006F915F914F913F912F910F900BBE0F900D
:100C80000FBE0F901F9018951F920F920FB60F92E4
:100C900011240BB60F922F933F934F935F936F9353
:100CA0007F938F939F93AF93BF93EF93FF93E091C5
:100CB0000A02F0910B021995FF91EF91BF91AF914C
:100CC0009F918F917F916F915F914F913F912F9164
:100CD0000F900BBE0F900FBE0F901F9018951F9294
:100CE0000F920FB60F9211240BB60F922F933F93D2
:100CF0004F935F936F937F938F939F93AF93BF9324
:100D0000EF93FF93E0910802F09109021995FF918A
:100D1000EF91BF91AF919F918F917F916F915F9173
:100D20004F913F912F910F900BBE0F900FBE0F90E0
:100D30001F9018951F920F920FB60F9211240BB6A9
:100D40000F922F933F934F935F936F937F938F9364
:100D50009F93AF93BF93EF93FF93E0910602F091BF
:100D600007021995FF91EF91BF91AF919F918F91DC
:100D70007F916F915F914F913F912F910F900BBE9B
:100D80000F900FBE0F901F9018951F920F920FB6E5
:100D90000F9211240BB60F922F933F934F935F93B3
:100DA0006F937F938F939F93AF93BF93EF93FF9333
:100DB000E0910402F09105021995FF91EF91BF9126
:100DC000AF919F918F917F916F915F914F913F91E3
:100DD0002F910F900BBE0F900FBE0F901F90189584
:100DE000CF92DF92EF92FF92CF93DF93EC016032CC
:100DF00082E078070CF03DC077FD06C0653B7105C9
:100E00002CF064EB70E002C060E070E0898128E8BB
:100E100030E06901C81AD10887FDD394CC0CDD1CE1
:100E2000CC0CDD1C0D2C000CEE08FF088A8128E597
:100E300032E0281B310987FD3395220F331F220F23
:100E4000331FC901330FAA0BBB0B9C01AD012C1939
:100E50003D094E095F09DB010E94E81124EB30E0F7
:100E600040E050E00E94C211C20ED31EE41EF51EE7
:100E7000B6018881803380F5998148E850E0491BAC
:100E8000510997FD5395440F551F440F551F641783
:100E9000750784F09A8128E532E0291B310997FD16
:100EA0003395220F331F220F331FAB01261737074D
:100EB0000CF4A90142505109440F551F2FB7F89463
:100EC00090E0FC01EE0FFF1F8E0F9F1FFC01ED5401
:100ED000FD4F528341832FBFDF91CF91FF90EF9061
:100EE000DF90CF900895FC019091A9029033A0F477
:100EF00081E0890F8093A9029083892F90E0FC0103
:100F0000EE0FFF1F8E0F9F1FFC01ED54FD4F88EB6E
:100F10009BE09283818308958FEF808308951F92D1
:100F20000F920FB60F9211240BB60F922F933F938F
:100F30004F935F936F937F938F939F93AF93BF93E1
:100F4000EF93FF9348E251E064E271E080E090E0CB
:100F500014DCFF91EF91BF91AF919F918F917F91A1
:100F60006F915F914F913F912F910F900BBE0F901A
:100F70000FBE0F901F9018951F920F920FB60F92F1
:100F800011240BB60F922F933F934F935F936F9360
:100F90007F938F939F93AF93BF93EF93FF9348EA11
:100FA00050E064EA70E083E090E0E7DBFF91EF91CE
:100FB000BF91AF919F918F917F916F915F914F9171
:100FC0003F912F910F900BBE0F900FBE0F901F906F
:100FD00018951F920F920FB60F9211240BB60F9215
:100FE0002F933F934F935F936F937F938F939F9331
:100FF000AF93BF93EF93FF9348E950E064E970E04B
:1010000082E090E0BADBFF91EF91BF91AF919F91A9
:101010008F917F916F915F914F913F912F910F90A1
:101020000BBE0F900FBE0F901F9018951F920F923E
:101030000FB60F9211240BB60F922F933F934F933D
:101040005F936F937F938F939F93AF93BF93EF9330
:10105000FF9348E850E064E870E081E090E08DDBC9
:10106000FF91EF91BF91AF919F918F917F916F9180
:101070005F914F913F912F910F900BBE0F900FBE3C
:101080000F901F9018950895CF92DF92EF92FF92E4
:101090000F931F93CF93DF936C017A018B01C0E014
:1010A000D0E0CE15DF0589F0D8016D918D01D60114
:1010B000ED91FC910190F081E02DC6011995892BED
:1010C00011F47E0102C02196ECCFC701DF91CF91D0
:1010D0001F910F91FF90EF90DF90CF9008950F93A5
:1010E0001F93D0DC60934B0370934C0380934D03AC
:1010F00090934E03E0914303F09144030680F781FF
:10110000E02D83E493E0199597FF1EC0BBDC0091AE
:101110004B0310914C0320914D0330914E03DC01A1
:10112000CB01801B910BA20BB30B009147031091D5
:1011300048032091490330914A0380179107A20781
:10114000B307C0F28FEF9FEF1F910F9108950E9498
:1011500051110F931F93CF93DF93EC0188819981F5
:10116000009729F02A813B812617370780F48B01ED
:101170006F5F7F4FB2D7009761F0998388831B839D
:101180000A832C813D81232B11F4FC01108281E024
:1011900001C080E0DF91CF911F910F910895EF92F0
:1011A000FF920F931F93CF93DF93EC011982188264
:1011B0001B821A821D821C826115710539F18B0117
:1011C000FB0101900020E9F731977F01E61AF70A49
:1011D000B701BFDF2881398181110CC0211531058C
:1011E00011F0C901E2D6198218821D821C821B826D
:1011F0001A820CC0FD82EC82B801C901DF91CF9147
:101200001F910F91FF90EF900C945E11DF91CF91A1
:101210001F910F91FF90EF900895E3E4F3E0A08910
:10122000B18982E08C93A485B5851C92A685B7858B
:101230008FEC8C93108EA489B58986E08C93A2895B
:10124000B3898C9180618C93A289B3898C918860D9
:101250008C93A289B3898C9180688C930288F389DE
:10126000E02D80818F7D80830895EF92FF921F9300
:10127000CF93DF93EC01162F7A018881803308F039
:1012800059C061E0812F3EDB8881E82FF0E09F01AB
:10129000220F331FE20FF31FED54FD4F1F73908198
:1012A000907C192B108398E8998320E639E02E1959
:1012B0003F0937FF02C02D5F3F4F35952795359584
:1012C00027952A836CE0C8D59CE0899FB001112442
:1012D00040E050E09A01260F371FF901EE0FFF1F83
:1012E0002E0F3F1FF901ED54FD4F908196FD16C062
:1012F0004F5F5F4F4C30510569F7813011F5109207
:10130000800082E08093810010928500109284001A
:10131000B19A80916F00826080936F00E881F0E065
:10132000CF01880F991FE80FF91FED54FD4F808101
:10133000806480838881DF91CF911F91FF90EF902F
:101340000895823061F41092900080939100109281
:1013500095001092940088BB80937100DFCF83309A
:1013600069F41092A00082E08093A1001092A50081
:101370001092A40089BB80937200D0CF8111CECF90
:101380001092200182E08093210110922501109299
:1013900024018ABB80937300C1CFCF92DF92EF927A
:1013A000FF920F931F93CF93DF931F921F92CDB79E
:1013B000DEB78C01C62E6EE372E0F1DE90DE0C2CFF
:1013C000000CDD0897FD20C08C159D05E9F0898390
:1013D0001A82F801E480F580FFEFEF1AFF0AB701E7
:1013E000C801B7DE882371F0F80120813181848142
:1013F0009581BE016F5F7F4F820F931F5FD7F8010A
:10140000F582E4826CDEDECFC8010F900F90DF9191
:10141000CF911F910F91FF90EF90DF90CF900895A3
:101420000F931F93CF93DF938C01EB01FC0180811D
:1014300091810097A1F0688179816115710571F042
:10144000428153812C813D814217530738F036D7B2
:101450008C819D81F8019583848312C0A6D58881F3
:101460009981F801918380838A819B819383828310
:101470008C819D8195838483198218821B821A82B4
:101480001D821C82DF91CF911F910F910895FC0165
:10149000808191818AC56115710579F0FB01019008
:1014A0000020E9F73197AF01461B570BDC01ED91A6
:1014B000FC910280F381E02D199480E090E0089582
:1014C0004F925F926F927F92EF92FF920F931F93D2
:1014D000CF93DF93CDB7DEB7A1970FB6F894DEBFF9
:1014E0000FBECDBF7C01FA01CB0119A2223008F456
:1014F0002AE08E010F5D1F4F422E512C612C712C62
:10150000BF01A30192011CD7F901CA0101501109C1
:101510006A3014F4605D01C0695CD8016C93232BC0
:10152000242B252B69F7B801C701B5DFA1960FB6AB
:10153000F894DEBF0FBECDBFDF91CF911F910F9109
:10154000FF90EF907F906F905F904F900895A3CFA2
:10155000CF93DF9300D000D0CDB7DEB7789484B5B9
:10156000826084BD84B5816084BD85B5826085BD9F
:1015700085B5816085BD80916E00816080936E002D
:10158000109281008091810082608093810080911F
:1015900081008160809381008091800081608093D0
:1015A00080008091B10084608093B1008091B00090
:1015B00081608093B000809191008260809391005F
:1015C0008091910081608093910080919000816072
:1015D000809390008091A10082608093A10080910F
:1015E000A10081608093A1008091A0008160809320
:1015F000A0008091210182608093210180912101CE
:10160000816080932101809120018160809320017D
:1016100080917A00846080937A0080917A00826061
:1016200080937A0080917A00816080937A00809123
:101630007A00806880937A001092C100109224048E
:101640001092250410922604109227041092E203AF
:101650001092E3031092E4031092E50368EB7BE041
:1016600080E090E0D7D983E493E0909323048093C3
:101670002204D3DD07DA6093E2037093E3038093DF
:10168000E4039093E5036DE272E08091220490916F
:1016900023045DDF6AE070E080E090E0BBD981E088
:1016A0008093F603BADD40EA50E066E070E086E43D
:1016B00094E0DBDD44EB50E065E070E083E494E02F
:1016C000D4DD40EA50E064E070E080E494E0CDDDF9
:1016D00060E082E017D960E083E014D982E193E012
:1016E000909301028093000280916A008C7F816058
:1016F00080936A00EC9A85EF92E0909303028093C6
:10170000020280916A00837F846080936A00ED9A70
:1017100061E08AE0F7D861E088E0F4D861E089E030
:10172000F1D860E084E1EED88EEB94E0909307026C
:101730008093060280916900837F886080936900AE
:10174000E99A86E98093120284EB80939A0284E6F8
:101750008093100266E970E086E494E041DB64EB7C
:1017600070E083E494E03CDB64E670E080E494E0C5
:1017700037DB6FE372E083E493E0E9DE409112022D
:1017800050E060E070E02AE083E493E099DE6BE4EF
:1017900072E083E493E0DBDE40919A0250E060E087
:1017A00070E02AE083E493E08BDE6AE572E083E494
:1017B00093E0CDDE4091100250E060E070E02AE05E
:1017C00083E493E07DDE6CE372E083E493E063DE28
:1017D00060E088E00E948E0361E089E00E948E0351
:1017E00061E08AE08FD8E6E3F1E0E4918E2F90E0AB
:1017F000FC013197E231F10508F0B8C08827EE58B6
:10180000FF4F8F4F35C384B5806884BD82E387BDA9
:10181000B1C084B5806284BD82E388BDABC08091D5
:10182000800080688093800082E390E0909389003C
:10183000809388009FC080918000806280938000A8
:1018400082E390E090938B0080938A0093C0809114
:10185000800088608093800082E390E090938D0008
:1018600080938C0087C08091B00080688093B00026
:1018700082E38093B3007EC08091B0008062809349
:10188000B00082E38093B40075C0809190008068BE
:101890008093900082E390E0909399008093980069
:1018A00069C08091900080628093900082E390E014
:1018B00090939B0080939A005DC080919000886017
:1018C0008093900082E390E090939D0080939C0031
:1018D00051C08091A00080688093A0008091A000FA
:1018E0008F7B8093A00082E390E09093A900809387
:1018F000A80040C08091A00080628093A00082E395
:1019000090E09093AB008093AA0034C08091A00037
:1019100088608093A00082E390E09093AD00809374
:10192000AC0028C08091200180688093200182E370
:1019300090E090932901809328011CC080912001A0
:1019400080628093200182E390E090932B0180934A
:101950002A0110C08091200188608093200182E3D9
:1019600090E090932D0180932C0104C060E08AE008
:101970000E948E0310928D0210928E0210928F029E
:101980001092900210929102109292021092930281
:101990001092940210929502109296021092970261
:1019A0001092980284EFC82EDD24D394E12CF12C00
:1019B00069D8672B682B692B39F464D862307105BC
:1019C0008105910508F4FCC05DD860939F02709377
:1019D000A0028093A1029093A20200919B02109119
:1019E0009C0220919D0230919E0260177107820730
:1019F000930740F460939B0270939C0280939D0236
:101A000090939E0200919B0210919C0220919D0256
:101A100030919E024B015C01801A910AA20AB30A1E
:101A2000950184010A3F11052105310508F4C8C05C
:101A300060939B0270939C0280939D0290939E0200
:101A4000C092EE03D092EF03E092F003F092F10324
:101A50001092F2031092F3031092F4031092F50324
:101A60008091E6039091E703A091E803B091E90328
:101A70008093EA039093EB03A093EC03B093ED0300
:101A800001D86093E6037093E7038093E803909393
:101A9000E9030E9442056093E2037093E30380939D
:101AA000E4039093E5030E9442054B015C0169E663
:101AB00072E0809122049091230449DD2AE041E004
:101AC00050E060E070E08091220490912304F8DC03
:101AD00060E772E0809122049091230438DD2AE0CF
:101AE000B501A4018091220490912304E9DC62E70E
:101AF00072E0809122049091230429DD8091E60315
:101B00009091E703A091E803B091E903B501A40126
:101B1000481B590B6A0B7B0B2AE0809122049091A1
:101B20002304CEDC62E772E08091220490912304CA
:101B30000EDD4091E6035091E7036091E803709158
:101B4000E9038091EA039091EB03A091EC03B0913B
:101B5000ED03481B590B6A0B7B0B2AE08091220492
:101B600090912304ADDC64E772E0809122049091AF
:101B70002304EDDC0E944205AB01BC012AE0809108
:101B80002204909123049CDC0091220410912304F0
:101B900066E772E0C8017FDC6CE372E0C8017BDCC1
:101BA00065E070E080E090E00E940A050E94420536
:101BB0006093E6037093E7038093E8039093E9034F
:101BC00083E493E00E947C01892B09F4A7C08091F3
:101BD0008C02882309F4A2C060E2CE010196DDDB0D
:101BE000BE016F5F7F4F8AE394E01ADCCE0101965D
:101BF0004EDC60E2CE010196D0DBBE016F5F7F4F0D
:101C000084E394E00DDCCE01019641DC6AE0CE0174
:101C10000196C3DBBE016F5F7F4F8EE294E000DC74
:101C2000CE01019634DC6FE372E083E493E08FDC55
:101C300080913A0490913B04009709F4A2C045D3E7
:101C400060931202AB01BC015527662777272AE073
:101C500083E493E035DC80901102082D10E0A12C84
:101C6000B12C90901202892D90E0081719070CF002
:101C700058C06BE472E083E493E069DC8091340443
:101C800090913504009709F460C01FD360939A02C5
:101C9000AB01BC015527662777272AE083E493E050
:101CA0000FDC70909A02872C912CB40183E494E0AD
:101CB00097D860909902062D10E0A12CB12C081540
:101CC00019050CF046C06AE572E083E493E03FDC5E
:101CD00080912E0490912F04009709F44EC0F5D204
:101CE00060931002AB01BC015527662777272AE0D5
:101CF00083E493E0E5DB6CE372E083E493E0CBDB29
:101D00006091100270E080E494E06AD88091120241
:101D10008093110280919A02809399020E94190285
:101D200047CE68EE73E080E090E00E940A058914D7
:101D300010F4B50101C0B80186E494E051D88FEFEA
:101D4000A81AB80A015011098CCF60E070E0CB01ED
:101D50009DCF68EE73E080E090E00E940A05671472
:101D600010F4B50101C0B80183E494E039D88FEFD5
:101D7000A81AB80A01501109A2CF60E070E0CB01A7
:101D8000AFCF60E070E0CB015BCF88E294E07FDB17
:101D90008EE294E07CDB84E394E079DB8AE394E0F8
:101DA00076CBE3E4F3E01382128288EE93E0A0E0C6
:101DB000B0E084839583A683B78381E292E0918328
:101DC000808385EC90E09587848784EC90E097870A
:101DD000868780EC90E0918B808B81EC90E0938BF8
:101DE000828B82EC90E0958B848B86EC90E0978BD5
:101DF000868B118E128E138E148EE0EEF3E0168217
:101E0000178210861186128613861486158616860A
:101E10001786108A118A128A138A148A158A86E410
:101E200094E061D883E494E05ED880E494E05BD8E9
:101E30006EE372E08AE394E0B2D96EE372E084E389
:101E400094E0ADD96EE372E08EE294E0A8D96EE33F
:101E500072E088E294E0A3C9991B79E004C0991F5D
:101E6000961708F0961B881F7A95C9F780950895F4
:101E7000EE0FFF1F881F8BBF0790F691E02D19947E
:101E8000CF93DF938230910510F482E090E0E091EF
:101E90004B04F0914C0420E030E0C0E0D0E03097FB
:101EA00011F14081518148175907C0F0481759076F
:101EB00061F482819381209719F09B838A832BC0E0
:101EC00090934C0480934B0426C02115310519F0E2
:101ED0004217530718F49A01BE01DF01EF01028097
:101EE000F381E02DDCCF2115310509F1281B390BD9
:101EF0002430310590F412968D919C9113976115C1
:101F0000710521F0FB019383828304C090934C04FC
:101F100080934B04FD01329644C0FD01E20FF31F94
:101F200081939193225031092D933C933AC0209193
:101F3000490430914A04232B41F420911502309139
:101F4000160230934A0420934904209113023091E1
:101F500014022115310541F42DB73EB74091170207
:101F600050911802241B350BE0914904F0914A046A
:101F7000E217F307A0F42E1B3F0B2817390778F060
:101F8000AC014E5F5F4F2417350748F04E0F5F1FBF
:101F900050934A04409349048193919302C0E0E036
:101FA000F0E0CF01DF91CF9108950F931F93CF936E
:101FB000DF93009709F48CC0FC01329713821282E0
:101FC00000914B0410914C040115110581F42081FE
:101FD0003181820F931F2091490430914A042817C0
:101FE000390779F5F0934A04E093490471C0D801A8
:101FF00040E050E0AE17BF0750F412962D913C918F
:102000001397AD012115310509F1D901F3CF9D01D8
:10201000DA013383228360817181860F971F8217D3
:10202000930769F4EC0128813981260F371F2E5F51
:102030003F4F318320838A819B8193838283452B09
:1020400029F4F0934C04E0934B0442C01396FC93A4
:10205000EE931297ED01499159919E01240F351F7E
:10206000E217F30771F480819181840F951F029626
:1020700011969C938E938281938113969C938E9359
:102080001297E0E0F0E0D80112968D919C911397A1
:10209000009719F0F8018C01F6CF8D919C91980171
:1020A0002E5F3F4F820F931F2091490430914A04C5
:1020B0002817390769F4309729F410924C041092CC
:1020C0004B0402C01382128210934A040093490405
:1020D000DF91CF911F910F9108956F927F928F9210
:1020E0009F92AF92BF92CF92DF92EF92FF920F93A7
:1020F0001F93CF93DF93EC01009781F4CB01DF9125
:10210000CF911F910F91FF90EF90DF90CF90BF90F4
:10211000AF909F908F907F906F90B2CEFC01E60FB2
:10212000F71F9C0122503109E217F30708F4A8C0F9
:10213000D9010D911C91119706171707A8F00530CA
:10214000110508F49BC0C80104978617970708F487
:1021500095C002501109061B170B019311936D9343
:102160007C93CF0122DF8AC05B01A01AB10A4C0127
:10217000800E911EA0914B04B0914C0440E050E0C1
:10218000E12CF12C109709F44AC0A815B905D1F536
:102190006D907C901197630182E0C80ED11CCA1427
:1021A000DB0480F1A3014A195B096A0182E0C80ED1
:1021B000D11C1296BC9012971396AC91B5E0CB1639
:1021C000D10440F0B282A38351834083D9016D933F
:1021D0007C930AC00E5F1F4FC301800F911FF9014E
:1021E00091838083EB2DFA2FE114F10431F0D701B4
:1021F0001396FC93EE93129741C0F0934C04E09336
:102200004B043CC08D919C9111974817590708F4D5
:10221000AC017D0112960D90BC91A02DB3CF8091A1
:10222000490490914A0488159905E1F44617570727
:10223000C8F48091130290911402009741F48DB775
:102240009EB74091170250911802841B950BE81716
:10225000F907B0F4F0934A04E0934904F90171835B
:1022600060830CC0CB010CDE7C01009749F0A80113
:10227000BE011BD0CE0199DEC70104C0CE0102C051
:1022800080E090E0DF91CF911F910F91FF90EF9050
:10229000DF90CF90BF90AF909F908F907F906F9086
:1022A000089581E090E0F894A8C0FB01DC0102C031
:1022B00001900D9241505040D8F70895FB01DC0188
:1022C00001900D920020E1F708951F93FC019927DA
:1022D0008827BC01E89411911032E9F3193010F00D
:1022E0001E30C8F31B3249F01D3241F4689405C01A
:1022F00012D0610F711D811D911D119110531A3063
:10230000B8F33EF490958095709561957F4F8F4F0F
:102310009F4F1F910895592F482F372F262F660F53
:10232000771F881F991F660F771F881F991F620FDD
:10233000731F841F951F660F771F881F991F0895AD
:10234000A1E21A2EAA1BBB1BFD010DC0AA1FBB1FB9
:10235000EE1FFF1FA217B307E407F50720F0A21B2B
:10236000B30BE40BF50B661F771F881F991F1A9498
:1023700069F760957095809590959B01AC01BD01C2
:10238000CF010895052E97FB16F400940FD057FD4A
:1023900005D0D6DF07FC02D046F408C05095409522
:1023A000309521953F4F4F4F5F4F08959095809501
:1023B000709561957F4F8F4F9F4F08950FD0A59FC8
:1023C000900DB49F900DA49F800D911D1124089530
:1023D000B7FFF4CFF3DF821B930B0895A29FB001E8
:1023E000B39FC001A39F700D811D1124911DB29F49
:1023F000700D811D1124911D089511E0C7E2D1E0F7
:1024000000E005C0802FFE0133DD2196011DC8329A
:0C241000D10780E00807B1F7F894FFCF77
:10241C00F402F402F402F402F402F402F402F40200
:10242C0096464600004D04800001000000000000AC
:10243C0000B20144087C015A016E01F801564D446A
:10244C0050565F317C315F564D4450560D0A006139
:10245C006E676C65426173653A2000207C20616E6A
:10246C00676C654A6F696E3A2000207C20616E674C
:10247C006C65436C61773A2000564D4450455F00C3
:10248C003A323A007C005F564D4450450046696D27
:0C249C0020646520437572736F3A2000C5
:00000001FF
